{
  "contractName": "charity",
  "abi": [
    {
      "inputs": [],
      "payable": false,
      "stateMutability": "nonpayable",
      "type": "constructor"
    },
    {
      "constant": true,
      "inputs": [
        {
          "internalType": "uint256",
          "name": "",
          "type": "uint256"
        }
      ],
      "name": "Blockchain",
      "outputs": [
        {
          "internalType": "uint256",
          "name": "nonce",
          "type": "uint256"
        },
        {
          "internalType": "bytes",
          "name": "data",
          "type": "bytes"
        },
        {
          "internalType": "bytes32",
          "name": "transaction_hash_add",
          "type": "bytes32"
        },
        {
          "internalType": "uint256",
          "name": "blockNumber",
          "type": "uint256"
        },
        {
          "internalType": "bytes32",
          "name": "hash",
          "type": "bytes32"
        },
        {
          "internalType": "bytes32",
          "name": "previous_hash",
          "type": "bytes32"
        }
      ],
      "payable": false,
      "stateMutability": "view",
      "type": "function"
    },
    {
      "constant": true,
      "inputs": [],
      "name": "blockchain_count",
      "outputs": [
        {
          "internalType": "uint256",
          "name": "",
          "type": "uint256"
        }
      ],
      "payable": false,
      "stateMutability": "view",
      "type": "function"
    },
    {
      "constant": true,
      "inputs": [],
      "name": "charity_count",
      "outputs": [
        {
          "internalType": "uint256",
          "name": "",
          "type": "uint256"
        }
      ],
      "payable": false,
      "stateMutability": "view",
      "type": "function"
    },
    {
      "constant": true,
      "inputs": [
        {
          "internalType": "uint256",
          "name": "",
          "type": "uint256"
        }
      ],
      "name": "charitys",
      "outputs": [
        {
          "internalType": "string",
          "name": "name",
          "type": "string"
        },
        {
          "internalType": "string",
          "name": "description",
          "type": "string"
        },
        {
          "internalType": "string",
          "name": "bankAccount",
          "type": "string"
        },
        {
          "internalType": "string",
          "name": "bankName",
          "type": "string"
        },
        {
          "internalType": "uint256",
          "name": "id",
          "type": "uint256"
        },
        {
          "internalType": "bytes32",
          "name": "hash",
          "type": "bytes32"
        },
        {
          "internalType": "string",
          "name": "address_of_charity",
          "type": "string"
        },
        {
          "internalType": "string",
          "name": "ether_coins",
          "type": "string"
        }
      ],
      "payable": false,
      "stateMutability": "view",
      "type": "function"
    },
    {
      "constant": true,
      "inputs": [
        {
          "internalType": "uint256",
          "name": "",
          "type": "uint256"
        }
      ],
      "name": "org",
      "outputs": [
        {
          "internalType": "string",
          "name": "name",
          "type": "string"
        },
        {
          "internalType": "string",
          "name": "bankAccount",
          "type": "string"
        },
        {
          "internalType": "string",
          "name": "bankName",
          "type": "string"
        },
        {
          "internalType": "uint256",
          "name": "id",
          "type": "uint256"
        },
        {
          "internalType": "bytes32",
          "name": "hash",
          "type": "bytes32"
        },
        {
          "internalType": "string",
          "name": "address_of_organisation",
          "type": "string"
        },
        {
          "internalType": "string",
          "name": "ether_coins",
          "type": "string"
        }
      ],
      "payable": false,
      "stateMutability": "view",
      "type": "function"
    },
    {
      "constant": true,
      "inputs": [],
      "name": "org_count",
      "outputs": [
        {
          "internalType": "uint256",
          "name": "",
          "type": "uint256"
        }
      ],
      "payable": false,
      "stateMutability": "view",
      "type": "function"
    },
    {
      "constant": true,
      "inputs": [],
      "name": "transaction_count",
      "outputs": [
        {
          "internalType": "uint256",
          "name": "",
          "type": "uint256"
        }
      ],
      "payable": false,
      "stateMutability": "view",
      "type": "function"
    },
    {
      "constant": true,
      "inputs": [
        {
          "internalType": "uint256",
          "name": "",
          "type": "uint256"
        }
      ],
      "name": "transaction_dict",
      "outputs": [
        {
          "internalType": "string",
          "name": "address_of_charity",
          "type": "string"
        },
        {
          "internalType": "string",
          "name": "address_of_organisation",
          "type": "string"
        },
        {
          "internalType": "string",
          "name": "amount_sent",
          "type": "string"
        },
        {
          "internalType": "uint256",
          "name": "id",
          "type": "uint256"
        },
        {
          "internalType": "bytes32",
          "name": "transaction_hash",
          "type": "bytes32"
        }
      ],
      "payable": false,
      "stateMutability": "view",
      "type": "function"
    },
    {
      "constant": false,
      "inputs": [
        {
          "internalType": "string",
          "name": "_name",
          "type": "string"
        },
        {
          "internalType": "string",
          "name": "_description",
          "type": "string"
        },
        {
          "internalType": "string",
          "name": "_bankacc",
          "type": "string"
        },
        {
          "internalType": "string",
          "name": "_bankname",
          "type": "string"
        },
        {
          "internalType": "string",
          "name": "_address",
          "type": "string"
        },
        {
          "internalType": "string",
          "name": "_ether_coins",
          "type": "string"
        }
      ],
      "name": "createCharity",
      "outputs": [
        {
          "internalType": "uint256",
          "name": "",
          "type": "uint256"
        }
      ],
      "payable": false,
      "stateMutability": "nonpayable",
      "type": "function"
    },
    {
      "constant": false,
      "inputs": [
        {
          "internalType": "string",
          "name": "_name",
          "type": "string"
        },
        {
          "internalType": "string",
          "name": "_bankacc",
          "type": "string"
        },
        {
          "internalType": "string",
          "name": "_bankname",
          "type": "string"
        },
        {
          "internalType": "string",
          "name": "_address",
          "type": "string"
        },
        {
          "internalType": "string",
          "name": "_ether_coins",
          "type": "string"
        }
      ],
      "name": "createOrganisation",
      "outputs": [
        {
          "internalType": "uint256",
          "name": "",
          "type": "uint256"
        }
      ],
      "payable": false,
      "stateMutability": "nonpayable",
      "type": "function"
    },
    {
      "constant": false,
      "inputs": [
        {
          "internalType": "string",
          "name": "add_of_charity",
          "type": "string"
        },
        {
          "internalType": "string",
          "name": "add_of_org",
          "type": "string"
        },
        {
          "internalType": "string",
          "name": "amount",
          "type": "string"
        }
      ],
      "name": "createTransaction",
      "outputs": [],
      "payable": false,
      "stateMutability": "nonpayable",
      "type": "function"
    },
    {
      "constant": false,
      "inputs": [],
      "name": "blockchain_function",
      "outputs": [],
      "payable": false,
      "stateMutability": "nonpayable",
      "type": "function"
    }
  ],
  "bytecode": "0x6080604052600080556000600155600060045560006006553480156200002457600080fd5b50620000ee6040518060400160405280600d81526020016c616e616e645f6368617269747960981b81525060405180608001604052806050815260200162005999605091396040518060400160405280600781526020016662616e6b61636360c81b8152506040518060400160405280600881526020016762616e6b6e616d6560c01b8152506040518060600160405280602a815260200162005a13602a91396040805180820190915260048152630303030360e41b60208201526001600160e01b036200022216565b50620001a96040518060400160405280601281526020017130b730b7322fb7b933b0b734b9b0ba34b7b760711b8152506040518060400160405280600c81526020016b18985b9ac81858d8dbdd5b9d60a21b8152506040518060400160405280600981526020016862616e6b206e616d6560b81b8152506040518060600160405280602a815260200162005a13602a91396040805180820190915260048152630303030360e41b60208201526001600160e01b036200057616565b50620002096040518060600160405280602a81526020016200596f602a91396040518060600160405280602a8152602001620059e9602a91396040805180820190915260018152603160f81b60208201526001600160e01b036200084016565b6200021c6001600160e01b0362000a4616565b620021ac565b60008054600101815582518451865188518a516040805191909201909201909201909201808352601f19601f82011683016020019091528891889188918891889160609180156200027a576020820181803883390190505b509050806000805b8851811015620002d5578881815181106200029957fe5b602001015160f81c60f81b838381518110620002b157fe5b60200101906001600160f81b031916908160001a9053506001918201910162000282565b5060005b87518110156200032c57878181518110620002f057fe5b602001015160f81c60f81b8383815181106200030857fe5b60200101906001600160f81b031916908160001a90535060019182019101620002d9565b5060005b865181101562000383578681815181106200034757fe5b602001015160f81c60f81b8383815181106200035f57fe5b60200101906001600160f81b031916908160001a9053506001918201910162000330565b5060005b8551811015620003da578581815181106200039e57fe5b602001015160f81c60f81b838381518110620003b657fe5b60200101906001600160f81b031916908160001a9053506001918201910162000387565b5060005b84518110156200043157848181518110620003f557fe5b602001015160f81c60f81b8383815181106200040d57fe5b60200101906001600160f81b031916908160001a90535060019182019101620003de565b506000828051906020012090508f600260008054815260200190815260200160002060000190805190602001906200046b92919062002107565b508e600260008054815260200190815260200160002060010190805190602001906200049992919062002107565b508d60026000805481526020019081526020016000206002019080519060200190620004c792919062002107565b508c60026000805481526020019081526020016000206003019080519060200190620004f592919062002107565b5060008054808252600260209081526040808420600481019390935560059092018490558254835291208d5162000535926006909201918f019062002107565b506000805481526002602090815260409091208c516200055e926007909201918e019062002107565b50506000549f9e505050505050505050505050505050565b600180548101905581518351855187516040805191909201909201909201808252601f19601f82011682016020019092526000918791879187918791606091908015620005ca576020820181803883390190505b509050806000805b87518110156200062557878181518110620005e957fe5b602001015160f81c60f81b8383815181106200060157fe5b60200101906001600160f81b031916908160001a90535060019182019101620005d2565b5060005b86518110156200067c578681815181106200064057fe5b602001015160f81c60f81b8383815181106200065857fe5b60200101906001600160f81b031916908160001a9053506001918201910162000629565b5060005b8551811015620006d3578581815181106200069757fe5b602001015160f81c60f81b838381518110620006af57fe5b60200101906001600160f81b031916908160001a9053506001918201910162000680565b5060005b84518110156200072a57848181518110620006ee57fe5b602001015160f81c60f81b8383815181106200070657fe5b60200101906001600160f81b031916908160001a90535060019182019101620006d7565b506000828051906020012090508d60036000600154815260200190815260200160002060000190805190602001906200076592919062002107565b508c60036000600154815260200190815260200160002060010190805190602001906200079492919062002107565b5060015460009081526003602090815260409091208d51620007bf926002909201918f019062002107565b5060018054600081815260036020818152604080842092830194909455600490910185905592548152208c51620007ff926005909201918e019062002107565b5060015460009081526003602090815260409091208b516200082a926006909201918d019062002107565b50506001549d9c50505050505050505050505050565b6004805460010190558051825184516040805191909201909201808352601f19601f820116830160200190915284918491849160609180156200088a576020820181803883390190505b509050806000805b8651811015620008e757868181518110620008a957fe5b602001015160f81c60f81b838380600101945081518110620008c757fe5b60200101906001600160f81b031916908160001a90535060010162000892565b5060005b855181101562000940578581815181106200090257fe5b602001015160f81c60f81b8383806001019450815181106200092057fe5b60200101906001600160f81b031916908160001a905350600101620008eb565b5060005b845181101562000999578481815181106200095b57fe5b602001015160f81c60f81b8383806001019450815181106200097957fe5b60200101906001600160f81b031916908160001a90535060010162000944565b508151602080840191909120600454600090815260058352604090208b519192620009c892908d019062002107565b5060045460009081526005602090815260409091208a51620009f3926001909201918c019062002107565b506004546000908152600560209081526040909120895162000a1e926002909201918b019062002107565b5060048054600081815260056020526040902060038101919091550155505050505050505050565b6006805460019081019091556000905b600054811162000e6d57600081815260026020818152604092839020805484516001821615610100026000190190911693909304601f8101839004830284018301909452838352606093909183018282801562000af75780601f1062000acb5761010080835404028352916020019162000af7565b820191906000526020600020905b81548152906001019060200180831162000ad957829003601f168201915b505050505090506060600260008481526020019081526020016000206001018054600181600116156101000203166002900480601f01602080910402602001604051908101604052809291908181526020018280546001816001161561010002031660029004801562000bae5780601f1062000b825761010080835404028352916020019162000bae565b820191906000526020600020905b81548152906001019060200180831162000b9057829003601f168201915b5050506000868152600260208181526040928390208201805484516001821615610100026000190190911693909304601f810183900483028401830190945283835295965060609591945090925083018282801562000c515780601f1062000c255761010080835404028352916020019162000c51565b820191906000526020600020905b81548152906001019060200180831162000c3357829003601f168201915b505050600087815260026020818152604092839020600301805484516001821615610100026000190190911693909304601f810183900483028401830190945283835295965060609591945090925083018282801562000cf55780601f1062000cc95761010080835404028352916020019162000cf5565b820191906000526020600020905b81548152906001019060200180831162000cd757829003601f168201915b505050600088815260026020818152604092839020600601805484516001821615610100026000190190911693909304601f810183900483028401830190945283835295965060609591945090925083018282801562000d995780601f1062000d6d5761010080835404028352916020019162000d99565b820191906000526020600020905b81548152906001019060200180831162000d7b57829003601f168201915b505050600089815260026020818152604092839020600701805484516001821615610100026000190190911693909304601f810183900483028401830190945283835295965060609591945090925083018282801562000e3d5780601f1062000e115761010080835404028352916020019162000e3d565b820191906000526020600020905b81548152906001019060200180831162000e1f57829003601f168201915b50505050509050805182518451865188518a51010101010188019750505050505050808060010191505062000a56565b5060015b6001548111620011e45760008181526003602090815260409182902080548351601f600260001961010060018616150201909316929092049182018490048402810184019094528084526060939283018282801562000f145780601f1062000ee85761010080835404028352916020019162000f14565b820191906000526020600020905b81548152906001019060200180831162000ef657829003601f168201915b505050505090506060600360008481526020019081526020016000206001018054600181600116156101000203166002900480601f01602080910402602001604051908101604052809291908181526020018280546001816001161561010002031660029004801562000fcb5780601f1062000f9f5761010080835404028352916020019162000fcb565b820191906000526020600020905b81548152906001019060200180831162000fad57829003601f168201915b5050506000868152600360209081526040918290206002908101805484516001821615610100026000190190911692909204601f81018490048402830184019094528382529596506060959094509250830182828015620010705780601f10620010445761010080835404028352916020019162001070565b820191906000526020600020905b8154815290600101906020018083116200105257829003601f168201915b5050506000878152600360209081526040918290206005018054835160026001831615610100026000190190921691909104601f810184900484028201840190945283815295965060609594509250830182828015620011145780601f10620010e85761010080835404028352916020019162001114565b820191906000526020600020905b815481529060010190602001808311620010f657829003601f168201915b5050506000888152600360209081526040918290206006018054835160026001831615610100026000190190921691909104601f810184900484028201840190945283815295965060609594509250830182828015620011b85780601f106200118c57610100808354040283529160200191620011b8565b820191906000526020600020905b8154815290600101906020018083116200119a57829003601f168201915b505050505090508051825184518651885101010101870196505050505050808060010191505062000e71565b506060816040519080825280601f01601f19166020018201604052801562001213576020820181803883390190505b509050600081818060015b60005481116200181f57600081815260026020818152604092839020805484516001821615610100026000190190911693909304601f81018390048302840183019094528383526060939091830182828015620012bf5780601f106200129357610100808354040283529160200191620012bf565b820191906000526020600020905b815481529060010190602001808311620012a157829003601f168201915b50939450600093505050505b81518110156200132057818181518110620012e257fe5b602001015160f81c60f81b8685806001019650815181106200130057fe5b60200101906001600160f81b031916908160001a905350600101620012cb565b506000828152600260208181526040928390206001908101805485519281161561010002600019011693909304601f8101839004830282018301909452838152606093909291830182828015620013bb5780601f106200138f57610100808354040283529160200191620013bb565b820191906000526020600020905b8154815290600101906020018083116200139d57829003601f168201915b50939450600093505050505b81518110156200141c57818181518110620013de57fe5b602001015160f81c60f81b878680600101975081518110620013fc57fe5b60200101906001600160f81b031916908160001a905350600101620013c7565b506000838152600260208181526040928390208201805484516001821615610100026000190190911693909304601f81018390048302840183019094528383526060939091830182828015620014b65780601f106200148a57610100808354040283529160200191620014b6565b820191906000526020600020905b8154815290600101906020018083116200149857829003601f168201915b50939450600093505050505b81518110156200151757818181518110620014d957fe5b602001015160f81c60f81b888780600101985081518110620014f757fe5b60200101906001600160f81b031916908160001a905350600101620014c2565b50600084815260026020818152604092839020600301805484516001821615610100026000190190911693909304601f81018390048302840183019094528383526060939091830182828015620015b25780601f106200158657610100808354040283529160200191620015b2565b820191906000526020600020905b8154815290600101906020018083116200159457829003601f168201915b50939450600093505050505b81518110156200161357818181518110620015d557fe5b602001015160f81c60f81b898880600101995081518110620015f357fe5b60200101906001600160f81b031916908160001a905350600101620015be565b50600085815260026020818152604092839020600601805484516001821615610100026000190190911693909304601f81018390048302840183019094528383526060939091830182828015620016ae5780601f106200168257610100808354040283529160200191620016ae565b820191906000526020600020905b8154815290600101906020018083116200169057829003601f168201915b50939450600093505050505b81518110156200170f57818181518110620016d157fe5b602001015160f81c60f81b8a89806001019a5081518110620016ef57fe5b60200101906001600160f81b031916908160001a905350600101620016ba565b50600086815260026020818152604092839020600701805484516001821615610100026000190190911693909304601f81018390048302840183019094528383526060939091830182828015620017aa5780601f106200177e57610100808354040283529160200191620017aa565b820191906000526020600020905b8154815290600101906020018083116200178c57829003601f168201915b50939450600093505050505b81518110156200180b57818181518110620017cd57fe5b602001015160f81c60f81b8b8a806001019b5081518110620017eb57fe5b60200101906001600160f81b031916908160001a905350600101620017b6565b5050600190950194506200121e9350505050565b5060015b600154811162001d495760008181526003602090815260409182902080548351601f6002600019610100600186161502019093169290920491820184900484028101840190945280845260609392830182828015620018c65780601f106200189a57610100808354040283529160200191620018c6565b820191906000526020600020905b815481529060010190602001808311620018a857829003601f168201915b50939450600093505050505b81518110156200192757818181518110620018e957fe5b602001015160f81c60f81b8685806001019650815181106200190757fe5b60200101906001600160f81b031916908160001a905350600101620018d2565b506060600360008481526020019081526020016000206001018054600181600116156101000203166002900480601f016020809104026020016040519081016040528092919081815260200182805460018160011615610100020316600290048015620019d85780601f10620019ac57610100808354040283529160200191620019d8565b820191906000526020600020905b815481529060010190602001808311620019ba57829003601f168201915b50939450600093505050505b815181101562001a3957818181518110620019fb57fe5b602001015160f81c60f81b87868060010197508151811062001a1957fe5b60200101906001600160f81b031916908160001a905350600101620019e4565b506000838152600360209081526040918290206002908101805484516001821615610100026000190190911692909204601f8101849004840283018401909452838252606093919290919083018282801562001ad95780601f1062001aad5761010080835404028352916020019162001ad9565b820191906000526020600020905b81548152906001019060200180831162001abb57829003601f168201915b50939450600093505050505b815181101562001b3a5781818151811062001afc57fe5b602001015160f81c60f81b88878060010198508151811062001b1a57fe5b60200101906001600160f81b031916908160001a90535060010162001ae5565b5060008481526003602090815260409182902060050180548351601f600260001961010060018616150201909316929092049182018490048402810184019094528084526060939283018282801562001bd75780601f1062001bab5761010080835404028352916020019162001bd7565b820191906000526020600020905b81548152906001019060200180831162001bb957829003601f168201915b50939450600093505050505b815181101562001c385781818151811062001bfa57fe5b602001015160f81c60f81b89888060010199508151811062001c1857fe5b60200101906001600160f81b031916908160001a90535060010162001be3565b5060008581526003602090815260409182902060060180548351601f600260001961010060018616150201909316929092049182018490048402810184019094528084526060939283018282801562001cd55780601f1062001ca95761010080835404028352916020019162001cd5565b820191906000526020600020905b81548152906001019060200180831162001cb757829003601f168201915b50939450600093505050505b815181101562001d365781818151811062001cf857fe5b602001015160f81c60f81b8a89806001019a508151811062001d1657fe5b60200101906001600160f81b031916908160001a90535060010162001ce1565b5050600190940193506200182392505050565b50600060608060015b600454811162001e025760045481141562001dab57600560008281526020019081526020016000206004015460405160200180828152602001915050604051602081830303815290604052925082518401935062001df9565b60008181526005602090815260408083206004908101546001860185529382902001548151928301939093528181019290925281518082038301815260609091019091528051949094019391505b60010162001d52565b506060836040519080825280601f01601f19166020018201604052801562001e31576020820181803883390190505b50905080600060015b600454811162001f865760045481141562001eda57600081815260056020908152604080832060040154815180840191909152815180820390930183528101905296505b865181101562001ed35786818151811062001e9557fe5b602001015160f81c60f81b84848060010195508151811062001eb357fe5b60200101906001600160f81b031916908160001a90535060010162001e7e565b5062001f7d565b60008181526005602090815260408083206004908101546001860180865283862090920154835194850191909152838301528151808403830181526060909301909152909650905b865181101562001f775786818151811062001f3957fe5b602001015160f81c60f81b85858060010196508151811062001f5757fe5b60200101906001600160f81b031916908160001a90535060010162001f22565b50506001015b60010162001e3a565b5060008280519060200120905060608a516040519080825280601f01601f19166020018201604052801562001fc2576020820181803883390190505b509050806000805b8d518110156200201f578d818151811062001fe157fe5b602001015160f81c60f81b83838060010194508151811062001fff57fe5b60200101906001600160f81b031916908160001a90535060010162001fca565b5081805190602001209b50600654600760006006548152602001908152602001600020600301819055508c60076000600654815260200190815260200160002060010190805190602001906200207792919062002107565b508b60076000600654815260200190815260200160002060040181905550600854600760006006548152602001908152602001600020600501819055508d6007600060065481526020019081526020016000206000018190555083600760006006548152602001908152602001600020600201819055508b60088190555050505050505050505050505050505050565b828054600181600116156101000203166002900490600052602060002090601f016020900481019282601f106200214a57805160ff19168380011785556200217a565b828001600101855582156200217a579182015b828111156200217a5782518255916020019190600101906200215d565b50620021889291506200218c565b5090565b620021a991905b8082111562002188576000815560010162002193565b90565b6137b380620021bc6000396000f3fe608060405234801561001057600080fd5b50600436106100b45760003560e01c8063acecc14911610071578063acecc14914610822578063b7483a1b1461082a578063cc11e16914610b67578063d5e2c5e414610e1f578063f3e2236f14610f8e578063f7ff50e214610f96576100b4565b80630ae9d38e146100b957806317db127a146100d35780631c74915a146102835780636610f9cf1461028b57806369e6601c1461052f5780636f05bbf41461076a575b600080fd5b6100c1610f9e565b60408051918252519081900360200190f35b610281600480360360608110156100e957600080fd5b810190602081018135600160201b81111561010357600080fd5b82018360208201111561011557600080fd5b803590602001918460018302840111600160201b8311171561013657600080fd5b91908080601f0160208091040260200160405190810160405280939291908181526020018383808284376000920191909152509295949360208101935035915050600160201b81111561018857600080fd5b82018360208201111561019a57600080fd5b803590602001918460018302840111600160201b831117156101bb57600080fd5b91908080601f0160208091040260200160405190810160405280939291908181526020018383808284376000920191909152509295949360208101935035915050600160201b81111561020d57600080fd5b82018360208201111561021f57600080fd5b803590602001918460018302840111600160201b8311171561024057600080fd5b91908080601f016020809104026020016040519081016040528093929190818152602001838380828437600092019190915250929550610fa4945050505050565b005b610281611197565b6102a8600480360360208110156102a157600080fd5b50356127b3565b6040518080602001806020018060200180602001898152602001888152602001806020018060200187810387528f818151815260200191508051906020019080838360005b838110156103055781810151838201526020016102ed565b50505050905090810190601f1680156103325780820380516001836020036101000a031916815260200191505b5087810386528e818151815260200191508051906020019080838360005b83811015610368578181015183820152602001610350565b50505050905090810190601f1680156103955780820380516001836020036101000a031916815260200191505b5087810385528d5181528d516020918201918f019080838360005b838110156103c85781810151838201526020016103b0565b50505050905090810190601f1680156103f55780820380516001836020036101000a031916815260200191505b5087810384528c5181528c516020918201918e019080838360005b83811015610428578181015183820152602001610410565b50505050905090810190601f1680156104555780820380516001836020036101000a031916815260200191505b5087810383528951815289516020918201918b019080838360005b83811015610488578181015183820152602001610470565b50505050905090810190601f1680156104b55780820380516001836020036101000a031916815260200191505b5087810382528851815288516020918201918a019080838360005b838110156104e85781810151838201526020016104d0565b50505050905090810190601f1680156105155780820380516001836020036101000a031916815260200191505b509e50505050505050505050505050505060405180910390f35b61054c6004803603602081101561054557600080fd5b5035612b48565b60405180806020018060200180602001888152602001878152602001806020018060200186810386528d818151815260200191508051906020019080838360005b838110156105a557818101518382015260200161058d565b50505050905090810190601f1680156105d25780820380516001836020036101000a031916815260200191505b5086810385528c5181528c516020918201918e019080838360005b838110156106055781810151838201526020016105ed565b50505050905090810190601f1680156106325780820380516001836020036101000a031916815260200191505b5086810384528b5181528b516020918201918d019080838360005b8381101561066557818101518382015260200161064d565b50505050905090810190601f1680156106925780820380516001836020036101000a031916815260200191505b5086810383528851815288516020918201918a019080838360005b838110156106c55781810151838201526020016106ad565b50505050905090810190601f1680156106f25780820380516001836020036101000a031916815260200191505b50868103825287518152875160209182019189019080838360005b8381101561072557818101518382015260200161070d565b50505050905090810190601f1680156107525780820380516001836020036101000a031916815260200191505b509c5050505050505050505050505060405180910390f35b6107876004803603602081101561078057600080fd5b5035612e53565b6040518087815260200180602001868152602001858152602001848152602001838152602001828103825287818151815260200191508051906020019080838360005b838110156107e25781810151838201526020016107ca565b50505050905090810190601f16801561080f5780820380516001836020036101000a031916815260200191505b5097505050505050505060405180910390f35b6100c1612f12565b6100c1600480360360c081101561084057600080fd5b810190602081018135600160201b81111561085a57600080fd5b82018360208201111561086c57600080fd5b803590602001918460018302840111600160201b8311171561088d57600080fd5b91908080601f0160208091040260200160405190810160405280939291908181526020018383808284376000920191909152509295949360208101935035915050600160201b8111156108df57600080fd5b8201836020820111156108f157600080fd5b803590602001918460018302840111600160201b8311171561091257600080fd5b91908080601f0160208091040260200160405190810160405280939291908181526020018383808284376000920191909152509295949360208101935035915050600160201b81111561096457600080fd5b82018360208201111561097657600080fd5b803590602001918460018302840111600160201b8311171561099757600080fd5b91908080601f0160208091040260200160405190810160405280939291908181526020018383808284376000920191909152509295949360208101935035915050600160201b8111156109e957600080fd5b8201836020820111156109fb57600080fd5b803590602001918460018302840111600160201b83111715610a1c57600080fd5b91908080601f0160208091040260200160405190810160405280939291908181526020018383808284376000920191909152509295949360208101935035915050600160201b811115610a6e57600080fd5b820183602082011115610a8057600080fd5b803590602001918460018302840111600160201b83111715610aa157600080fd5b91908080601f0160208091040260200160405190810160405280939291908181526020018383808284376000920191909152509295949360208101935035915050600160201b811115610af357600080fd5b820183602082011115610b0557600080fd5b803590602001918460018302840111600160201b83111715610b2657600080fd5b91908080601f016020809104026020016040519081016040528093929190818152602001838380828437600092019190915250929550612f18945050505050565b6100c1600480360360a0811015610b7d57600080fd5b810190602081018135600160201b811115610b9757600080fd5b820183602082011115610ba957600080fd5b803590602001918460018302840111600160201b83111715610bca57600080fd5b91908080601f0160208091040260200160405190810160405280939291908181526020018383808284376000920191909152509295949360208101935035915050600160201b811115610c1c57600080fd5b820183602082011115610c2e57600080fd5b803590602001918460018302840111600160201b83111715610c4f57600080fd5b91908080601f0160208091040260200160405190810160405280939291908181526020018383808284376000920191909152509295949360208101935035915050600160201b811115610ca157600080fd5b820183602082011115610cb357600080fd5b803590602001918460018302840111600160201b83111715610cd457600080fd5b91908080601f0160208091040260200160405190810160405280939291908181526020018383808284376000920191909152509295949360208101935035915050600160201b811115610d2657600080fd5b820183602082011115610d3857600080fd5b803590602001918460018302840111600160201b83111715610d5957600080fd5b91908080601f0160208091040260200160405190810160405280939291908181526020018383808284376000920191909152509295949360208101935035915050600160201b811115610dab57600080fd5b820183602082011115610dbd57600080fd5b803590602001918460018302840111600160201b83111715610dde57600080fd5b91908080601f01602080910402602001604051908101604052809392919081815260200183838082843760009201919091525092955061324b945050505050565b610e3c60048036036020811015610e3557600080fd5b50356134fa565b60405180806020018060200180602001868152602001858152602001848103845289818151815260200191508051906020019080838360005b83811015610e8d578181015183820152602001610e75565b50505050905090810190601f168015610eba5780820380516001836020036101000a031916815260200191505b5084810383528851815288516020918201918a019080838360005b83811015610eed578181015183820152602001610ed5565b50505050905090810190601f168015610f1a5780820380516001836020036101000a031916815260200191505b50848103825287518152875160209182019189019080838360005b83811015610f4d578181015183820152602001610f35565b50505050905090810190601f168015610f7a5780820380516001836020036101000a031916815260200191505b509850505050505050505060405180910390f35b6100c16136d7565b6100c16136dd565b60065481565b6004805460010190558051825184516040805191909201909201808352601f19601f82011683016020019091528491849184916060918015610fed576020820181803883390190505b509050806000805b86518110156110465786818151811061100a57fe5b602001015160f81c60f81b83838060010194508151811061102757fe5b60200101906001600160f81b031916908160001a905350600101610ff5565b5060005b855181101561109b5785818151811061105f57fe5b602001015160f81c60f81b83838060010194508151811061107c57fe5b60200101906001600160f81b031916908160001a90535060010161104a565b5060005b84518110156110f0578481815181106110b457fe5b602001015160f81c60f81b8383806001019450815181106110d157fe5b60200101906001600160f81b031916908160001a90535060010161109f565b508151602080840191909120600454600090815260058352604090208b51919261111d92908d01906136e3565b5060045460009081526005602090815260409091208a51611146926001909201918c01906136e3565b506004546000908152600560209081526040909120895161116f926002909201918b01906136e3565b5060048054600081815260056020526040902060038101919091550155505050505050505050565b6006805460019081019091556000905b60005481116115a457600081815260026020818152604092839020805484516001821615610100026000190190911693909304601f810183900483028401830190945283835260609390918301828280156112435780601f1061121857610100808354040283529160200191611243565b820191906000526020600020905b81548152906001019060200180831161122657829003601f168201915b505050505090506060600260008481526020019081526020016000206001018054600181600116156101000203166002900480601f0160208091040260200160405190810160405280929190818152602001828054600181600116156101000203166002900480156112f65780601f106112cb576101008083540402835291602001916112f6565b820191906000526020600020905b8154815290600101906020018083116112d957829003601f168201915b5050506000868152600260208181526040928390208201805484516001821615610100026000190190911693909304601f81018390048302840183019094528383529596506060959194509092508301828280156113955780601f1061136a57610100808354040283529160200191611395565b820191906000526020600020905b81548152906001019060200180831161137857829003601f168201915b505050600087815260026020818152604092839020600301805484516001821615610100026000190190911693909304601f81018390048302840183019094528383529596506060959194509092508301828280156114355780601f1061140a57610100808354040283529160200191611435565b820191906000526020600020905b81548152906001019060200180831161141857829003601f168201915b505050600088815260026020818152604092839020600601805484516001821615610100026000190190911693909304601f81018390048302840183019094528383529596506060959194509092508301828280156114d55780601f106114aa576101008083540402835291602001916114d5565b820191906000526020600020905b8154815290600101906020018083116114b857829003601f168201915b505050600089815260026020818152604092839020600701805484516001821615610100026000190190911693909304601f81018390048302840183019094528383529596506060959194509092508301828280156115755780601f1061154a57610100808354040283529160200191611575565b820191906000526020600020905b81548152906001019060200180831161155857829003601f168201915b50505050509050805182518451865188518a5101010101018801975050505050505080806001019150506111a7565b5060015b60015481116119055760008181526003602090815260409182902080548351601f60026000196101006001861615020190931692909204918201849004840281018401909452808452606093928301828280156116465780601f1061161b57610100808354040283529160200191611646565b820191906000526020600020905b81548152906001019060200180831161162957829003601f168201915b505050505090506060600360008481526020019081526020016000206001018054600181600116156101000203166002900480601f0160208091040260200160405190810160405280929190818152602001828054600181600116156101000203166002900480156116f95780601f106116ce576101008083540402835291602001916116f9565b820191906000526020600020905b8154815290600101906020018083116116dc57829003601f168201915b5050506000868152600360209081526040918290206002908101805484516001821615610100026000190190911692909204601f8101849004840283018401909452838252959650606095909450925083018282801561179a5780601f1061176f5761010080835404028352916020019161179a565b820191906000526020600020905b81548152906001019060200180831161177d57829003601f168201915b5050506000878152600360209081526040918290206005018054835160026001831615610100026000190190921691909104601f81018490048402820184019094528381529596506060959450925083018282801561183a5780601f1061180f5761010080835404028352916020019161183a565b820191906000526020600020905b81548152906001019060200180831161181d57829003601f168201915b5050506000888152600360209081526040918290206006018054835160026001831615610100026000190190921691909104601f8101849004840282018401909452838152959650606095945092508301828280156118da5780601f106118af576101008083540402835291602001916118da565b820191906000526020600020905b8154815290600101906020018083116118bd57829003601f168201915b50505050509050805182518451865188510101010187019650505050505080806001019150506115a8565b506060816040519080825280601f01601f191660200182016040528015611933576020820181803883390190505b509050600081818060015b6000548111611f0d57600081815260026020818152604092839020805484516001821615610100026000190190911693909304601f810183900483028401830190945283835260609390918301828280156119da5780601f106119af576101008083540402835291602001916119da565b820191906000526020600020905b8154815290600101906020018083116119bd57829003601f168201915b50939450600093505050505b8151811015611a37578181815181106119fb57fe5b602001015160f81c60f81b868580600101965081518110611a1857fe5b60200101906001600160f81b031916908160001a9053506001016119e6565b506000828152600260208181526040928390206001908101805485519281161561010002600019011693909304601f8101839004830282018301909452838152606093909291830182828015611ace5780601f10611aa357610100808354040283529160200191611ace565b820191906000526020600020905b815481529060010190602001808311611ab157829003601f168201915b50939450600093505050505b8151811015611b2b57818181518110611aef57fe5b602001015160f81c60f81b878680600101975081518110611b0c57fe5b60200101906001600160f81b031916908160001a905350600101611ada565b506000838152600260208181526040928390208201805484516001821615610100026000190190911693909304601f81018390048302840183019094528383526060939091830182828015611bc15780601f10611b9657610100808354040283529160200191611bc1565b820191906000526020600020905b815481529060010190602001808311611ba457829003601f168201915b50939450600093505050505b8151811015611c1e57818181518110611be257fe5b602001015160f81c60f81b888780600101985081518110611bff57fe5b60200101906001600160f81b031916908160001a905350600101611bcd565b50600084815260026020818152604092839020600301805484516001821615610100026000190190911693909304601f81018390048302840183019094528383526060939091830182828015611cb55780601f10611c8a57610100808354040283529160200191611cb5565b820191906000526020600020905b815481529060010190602001808311611c9857829003601f168201915b50939450600093505050505b8151811015611d1257818181518110611cd657fe5b602001015160f81c60f81b898880600101995081518110611cf357fe5b60200101906001600160f81b031916908160001a905350600101611cc1565b50600085815260026020818152604092839020600601805484516001821615610100026000190190911693909304601f81018390048302840183019094528383526060939091830182828015611da95780601f10611d7e57610100808354040283529160200191611da9565b820191906000526020600020905b815481529060010190602001808311611d8c57829003601f168201915b50939450600093505050505b8151811015611e0657818181518110611dca57fe5b602001015160f81c60f81b8a89806001019a5081518110611de757fe5b60200101906001600160f81b031916908160001a905350600101611db5565b50600086815260026020818152604092839020600701805484516001821615610100026000190190911693909304601f81018390048302840183019094528383526060939091830182828015611e9d5780601f10611e7257610100808354040283529160200191611e9d565b820191906000526020600020905b815481529060010190602001808311611e8057829003601f168201915b50939450600093505050505b8151811015611efa57818181518110611ebe57fe5b602001015160f81c60f81b8b8a806001019b5081518110611edb57fe5b60200101906001600160f81b031916908160001a905350600101611ea9565b50506001909501945061193e9350505050565b5060015b600154811161240d5760008181526003602090815260409182902080548351601f6002600019610100600186161502019093169290920491820184900484028101840190945280845260609392830182828015611faf5780601f10611f8457610100808354040283529160200191611faf565b820191906000526020600020905b815481529060010190602001808311611f9257829003601f168201915b50939450600093505050505b815181101561200c57818181518110611fd057fe5b602001015160f81c60f81b868580600101965081518110611fed57fe5b60200101906001600160f81b031916908160001a905350600101611fbb565b506060600360008481526020019081526020016000206001018054600181600116156101000203166002900480601f0160208091040260200160405190810160405280929190818152602001828054600181600116156101000203166002900480156120b95780601f1061208e576101008083540402835291602001916120b9565b820191906000526020600020905b81548152906001019060200180831161209c57829003601f168201915b50939450600093505050505b8151811015612116578181815181106120da57fe5b602001015160f81c60f81b8786806001019750815181106120f757fe5b60200101906001600160f81b031916908160001a9053506001016120c5565b506000838152600360209081526040918290206002908101805484516001821615610100026000190190911692909204601f810184900484028301840190945283825260609391929091908301828280156121b25780601f10612187576101008083540402835291602001916121b2565b820191906000526020600020905b81548152906001019060200180831161219557829003601f168201915b50939450600093505050505b815181101561220f578181815181106121d357fe5b602001015160f81c60f81b8887806001019850815181106121f057fe5b60200101906001600160f81b031916908160001a9053506001016121be565b5060008481526003602090815260409182902060050180548351601f60026000196101006001861615020190931692909204918201849004840281018401909452808452606093928301828280156122a85780601f1061227d576101008083540402835291602001916122a8565b820191906000526020600020905b81548152906001019060200180831161228b57829003601f168201915b50939450600093505050505b8151811015612305578181815181106122c957fe5b602001015160f81c60f81b8988806001019950815181106122e657fe5b60200101906001600160f81b031916908160001a9053506001016122b4565b5060008581526003602090815260409182902060060180548351601f600260001961010060018616150201909316929092049182018490048402810184019094528084526060939283018282801561239e5780601f106123735761010080835404028352916020019161239e565b820191906000526020600020905b81548152906001019060200180831161238157829003601f168201915b50939450600093505050505b81518110156123fb578181815181106123bf57fe5b602001015160f81c60f81b8a89806001019a50815181106123dc57fe5b60200101906001600160f81b031916908160001a9053506001016123aa565b505060019094019350611f1192505050565b50600060608060015b60045481116124c25760045481141561246c5760056000828152602001908152602001600020600401546040516020018082815260200191505060405160208183030381529060405292508251840193506124ba565b60008181526005602090815260408083206004908101546001860185529382902001548151928301939093528181019290925281518082038301815260609091019091528051949094019391505b600101612416565b506060836040519080825280601f01601f1916602001820160405280156124f0576020820181803883390190505b50905080600060015b60045481116126395760045481141561259257600081815260056020908152604080832060040154815180840191909152815180820390930183528101905296505b865181101561258c5786818151811061255057fe5b602001015160f81c60f81b84848060010195508151811061256d57fe5b60200101906001600160f81b031916908160001a90535060010161253b565b50612631565b60008181526005602090815260408083206004908101546001860180865283862090920154835194850191909152838301528151808403830181526060909301909152909650905b865181101561262b578681815181106125ef57fe5b602001015160f81c60f81b85858060010196508151811061260c57fe5b60200101906001600160f81b031916908160001a9053506001016125da565b50506001015b6001016124f9565b5060008280519060200120905060608a516040519080825280601f01601f191660200182016040528015612674576020820181803883390190505b509050806000805b8d518110156126cd578d818151811061269157fe5b602001015160f81c60f81b8383806001019450815181106126ae57fe5b60200101906001600160f81b031916908160001a90535060010161267c565b5081805190602001209b50600654600760006006548152602001908152602001600020600301819055508c60076000600654815260200190815260200160002060010190805190602001906127239291906136e3565b508b60076000600654815260200190815260200160002060040181905550600854600760006006548152602001908152602001600020600501819055508d6007600060065481526020019081526020016000206000018190555083600760006006548152602001908152602001600020600201819055508b60088190555050505050505050505050505050505050565b600260208181526000928352604092839020805484516001821615610100026000190190911693909304601f81018390048302840183019094528383529283918301828280156128445780601f1061281957610100808354040283529160200191612844565b820191906000526020600020905b81548152906001019060200180831161282757829003601f168201915b505050505090806001018054600181600116156101000203166002900480601f0160208091040260200160405190810160405280929190818152602001828054600181600116156101000203166002900480156128e25780601f106128b7576101008083540402835291602001916128e2565b820191906000526020600020905b8154815290600101906020018083116128c557829003601f168201915b50505060028085018054604080516020601f60001961010060018716150201909416959095049283018590048502810185019091528181529596959450909250908301828280156129745780601f1061294957610100808354040283529160200191612974565b820191906000526020600020905b81548152906001019060200180831161295757829003601f168201915b5050505060038301805460408051602060026001851615610100026000190190941693909304601f8101849004840282018401909252818152949594935090830182828015612a045780601f106129d957610100808354040283529160200191612a04565b820191906000526020600020905b8154815290600101906020018083116129e757829003601f168201915b505050505090806004015490806005015490806006018054600181600116156101000203166002900480601f016020809104026020016040519081016040528092919081815260200182805460018160011615610100020316600290048015612aae5780601f10612a8357610100808354040283529160200191612aae565b820191906000526020600020905b815481529060010190602001808311612a9157829003601f168201915b5050505060078301805460408051602060026001851615610100026000190190941693909304601f8101849004840282018401909252818152949594935090830182828015612b3e5780601f10612b1357610100808354040283529160200191612b3e565b820191906000526020600020905b815481529060010190602001808311612b2157829003601f168201915b5050505050905088565b60036020908152600091825260409182902080548351601f60026000196101006001861615020190931692909204918201849004840281018401909452808452909291839190830182828015612bdf5780601f10612bb457610100808354040283529160200191612bdf565b820191906000526020600020905b815481529060010190602001808311612bc257829003601f168201915b505050505090806001018054600181600116156101000203166002900480601f016020809104026020016040519081016040528092919081815260200182805460018160011615610100020316600290048015612c7d5780601f10612c5257610100808354040283529160200191612c7d565b820191906000526020600020905b815481529060010190602001808311612c6057829003601f168201915b50505060028085018054604080516020601f6000196101006001871615020190941695909504928301859004850281018501909152818152959695945090925090830182828015612d0f5780601f10612ce457610100808354040283529160200191612d0f565b820191906000526020600020905b815481529060010190602001808311612cf257829003601f168201915b505050505090806003015490806004015490806005018054600181600116156101000203166002900480601f016020809104026020016040519081016040528092919081815260200182805460018160011615610100020316600290048015612db95780601f10612d8e57610100808354040283529160200191612db9565b820191906000526020600020905b815481529060010190602001808311612d9c57829003601f168201915b5050505060068301805460408051602060026001851615610100026000190190941693909304601f8101849004840282018401909252818152949594935090830182828015612e495780601f10612e1e57610100808354040283529160200191612e49565b820191906000526020600020905b815481529060010190602001808311612e2c57829003601f168201915b5050505050905087565b6007602090815260009182526040918290208054600180830180548651600293821615610100026000190190911692909204601f810186900486028301860190965285825291949293909290830182828015612ef05780601f10612ec557610100808354040283529160200191612ef0565b820191906000526020600020905b815481529060010190602001808311612ed357829003601f168201915b5050505050908060020154908060030154908060040154908060050154905086565b60005481565b60008054600101815582518451865188518a516040805191909201909201909201909201808352601f19601f8201168301602001909152889188918891889188916060918015612f6f576020820181803883390190505b509050806000805b8851811015612fc657888181518110612f8c57fe5b602001015160f81c60f81b838381518110612fa357fe5b60200101906001600160f81b031916908160001a90535060019182019101612f77565b5060005b875181101561301957878181518110612fdf57fe5b602001015160f81c60f81b838381518110612ff657fe5b60200101906001600160f81b031916908160001a90535060019182019101612fca565b5060005b865181101561306c5786818151811061303257fe5b602001015160f81c60f81b83838151811061304957fe5b60200101906001600160f81b031916908160001a9053506001918201910161301d565b5060005b85518110156130bf5785818151811061308557fe5b602001015160f81c60f81b83838151811061309c57fe5b60200101906001600160f81b031916908160001a90535060019182019101613070565b5060005b8451811015613112578481815181106130d857fe5b602001015160f81c60f81b8383815181106130ef57fe5b60200101906001600160f81b031916908160001a905350600191820191016130c3565b506000828051906020012090508f6002600080548152602001908152602001600020600001908051906020019061314a9291906136e3565b508e600260008054815260200190815260200160002060010190805190602001906131769291906136e3565b508d600260008054815260200190815260200160002060020190805190602001906131a29291906136e3565b508c600260008054815260200190815260200160002060030190805190602001906131ce9291906136e3565b5060008054808252600260209081526040808420600481019390935560059092018490558254835291208d5161320c926006909201918f01906136e3565b506000805481526002602090815260409091208c51613233926007909201918e01906136e3565b50506000549f9e505050505050505050505050505050565b600180548101905581518351855187516040805191909201909201909201808252601f19601f8201168201602001909252600091879187918791879160609190801561329e576020820181803883390190505b509050806000805b87518110156132f5578781815181106132bb57fe5b602001015160f81c60f81b8383815181106132d257fe5b60200101906001600160f81b031916908160001a905350600191820191016132a6565b5060005b86518110156133485786818151811061330e57fe5b602001015160f81c60f81b83838151811061332557fe5b60200101906001600160f81b031916908160001a905350600191820191016132f9565b5060005b855181101561339b5785818151811061336157fe5b602001015160f81c60f81b83838151811061337857fe5b60200101906001600160f81b031916908160001a9053506001918201910161334c565b5060005b84518110156133ee578481815181106133b457fe5b602001015160f81c60f81b8383815181106133cb57fe5b60200101906001600160f81b031916908160001a9053506001918201910161339f565b506000828051906020012090508d60036000600154815260200190815260200160002060000190805190602001906134279291906136e3565b508c60036000600154815260200190815260200160002060010190805190602001906134549291906136e3565b5060015460009081526003602090815260409091208d5161347d926002909201918f01906136e3565b5060018054600081815260036020818152604080842092830194909455600490910185905592548152208c516134bb926005909201918e01906136e3565b5060015460009081526003602090815260409091208b516134e4926006909201918d01906136e3565b50506001549d9c50505050505050505050505050565b60056020908152600091825260409182902080548351601f600260001961010060018616150201909316929092049182018490048402810184019094528084529092918391908301828280156135915780601f1061356657610100808354040283529160200191613591565b820191906000526020600020905b81548152906001019060200180831161357457829003601f168201915b505050505090806001018054600181600116156101000203166002900480601f01602080910402602001604051908101604052809291908181526020018280546001816001161561010002031660029004801561362f5780601f106136045761010080835404028352916020019161362f565b820191906000526020600020905b81548152906001019060200180831161361257829003601f168201915b50505060028085018054604080516020601f60001961010060018716150201909416959095049283018590048502810185019091528181529596959450909250908301828280156136c15780601f10613696576101008083540402835291602001916136c1565b820191906000526020600020905b8154815290600101906020018083116136a457829003601f168201915b5050505050908060030154908060040154905085565b60015481565b60045481565b828054600181600116156101000203166002900490600052602060002090601f016020900481019282601f1061372457805160ff1916838001178555613751565b82800160010185558215613751579182015b82811115613751578251825591602001919060010190613736565b5061375d929150613761565b5090565b61377b91905b8082111561375d5760008155600101613767565b9056fea265627a7a7231582036d5145022bb855e1e3f9eb64c97790f98784bd7eb30506506c8a91837529c3964736f6c6343000510003230783945344665373762624133336239613835393765363546383841433430443835623435443244354577656c636f6d6520746f20616e616e64277320636861726974792c207468697320697320612064656661756c742063686172697479206173204920637265617465642074686973207765622070616765307830383633623436653531623935384539654666333636436344633145386631653530393135633835307843413335623764393135343538454635343061446536303638644665324634344538666137333363",
  "source": "pragma solidity ^ 0.5.0;\ncontract charity {\n\n  uint public charity_count = 0;\n\n\n  uint public org_count = 0;\n\n  struct charity_structre {\n    string name;\n    string description;\n    string bankAccount;\n    string bankName;\n    uint id;\n    bytes32 hash;\n    string address_of_charity;\n    string  ether_coins;\n\n\n  }\n\n  struct personOrOrganisation_structure {\n\n    string name;\n    string bankAccount;\n    string bankName;\n    uint id;\n    bytes32 hash;\n    string address_of_organisation;\n    string ether_coins;\n\n\n\n  }\n\n  constructor() public {\n\n      createCharity(\"anand_charity\", \"welcome to anand's charity, this is a default charity as I created this web page\",\"bankacc\",\"bankname\",\"0xCA35b7d915458EF540aDe6068dFe2F44E8fa733c\",\"0000\");\n\n      createOrganisation(\"anand_organisation\",\"bank account\",\"bank name\",\"0xCA35b7d915458EF540aDe6068dFe2F44E8fa733c\",\"0000\");\n\n      createTransaction(\"0x9E4Fe77bbA33b9a8597e65F88AC40D85b45D2D5E\",\"0x0863b46e51b958E9eFf366CcDc1E8f1e50915c85\",\"1\");\n\n      blockchain_function();\n  }\n\n  mapping(uint => charity_structre) public charitys;\n\n\n  mapping(uint => personOrOrganisation_structure) public org;\n\n  struct transactions {\n\n    string address_of_charity;\n    string address_of_organisation;\n    string amount_sent;\n    uint id;\n    bytes32 transaction_hash;\n\n  }\n\n  uint public transaction_count = 0;\n\n  mapping(uint => transactions) public transaction_dict;\n\n\n  uint public blockchain_count = 0;\n\n  struct blockchain_structure {\n\n      uint nonce;\n      bytes data;\n      bytes32 transaction_hash_add;\n      uint blockNumber;\n      bytes32 hash;\n      bytes32 previous_hash;\n  }\n\n  mapping(uint => blockchain_structure) public Blockchain;\n\n  bytes32 previousHash;\n\n  function createCharity(string memory _name, string memory _description, string memory _bankacc, string memory _bankname, string memory _address, string memory _ether_coins) public returns(uint){\n\n      charity_count++;\n      bytes memory name_byte = bytes(_name);\n      bytes memory description_byte = bytes(_description);\n      bytes memory bankacc_byte = bytes(_bankacc);\n      bytes memory bankname_byte = bytes(_bankname);\n      bytes memory address_byte = bytes(_address);\n      string memory lengthabc = new string(name_byte.length + description_byte.length + bankacc_byte.length + bankname_byte.length + address_byte.length);\n      bytes memory hash = bytes(lengthabc);\n      uint k = 0;\n      for(uint i =0;i < name_byte.length; i++){\n          hash[k] = name_byte[i];\n          k++;\n      }\n      for(uint i = 0;i < description_byte.length;i++){\n          hash[k] = description_byte[i];\n          k++;\n      }\n      for(uint i = 0;i < bankacc_byte.length;i++){\n          hash[k] = bankacc_byte[i];\n          k++;\n      }\n      for(uint i = 0;i < bankname_byte.length;i++){\n          hash[k] = bankname_byte[i];\n          k++;\n      }\n\n      for(uint i = 0;i < address_byte.length; i++ ){\n\n          hash[k] = address_byte[i];\n          k++;\n      }\n\n\n      bytes32 hash_address = keccak256(hash);\n      charitys[charity_count].name = _name;\n      charitys[charity_count].description = _description;\n      charitys[charity_count].bankAccount = _bankacc;\n      charitys[charity_count].bankName = _bankname;\n      charitys[charity_count].id = charity_count;\n      charitys[charity_count].hash = hash_address;\n      charitys[charity_count].address_of_charity = _address;\n      charitys[charity_count].ether_coins = _ether_coins;\n      //emit charityCreated(_name,_description,_bankacc,_bankname,charity_count,hash_address,_address);\n\n      return(charity_count);\n\n\n  }\n\n\n  function createOrganisation(string memory _name, string memory _bankacc, string memory _bankname, string memory _address, string memory _ether_coins) public returns(uint){\n\n    org_count ++;\n\n    bytes memory name_byte = bytes(_name);\n    bytes memory acc_byte = bytes(_bankacc);\n    bytes memory bankname_byte = bytes(_bankname);\n    bytes memory address_byte = bytes(_address);\n    string memory lengthabc = new string(name_byte.length + acc_byte.length + bankname_byte.length + address_byte.length );\n    bytes memory hash = bytes(lengthabc);\n\n    uint k = 0;\n\n    for(uint i = 0; i < name_byte.length;i++) {\n\n      hash[k] = name_byte[i];\n      k++;\n    }\n\n    for(uint i = 0; i < acc_byte.length; i++){\n\n      hash[k] = acc_byte[i];\n      k++;\n\n    }\n\n\n    for(uint i = 0; i < bankname_byte.length; i++) {\n\n      hash[k] = bankname_byte[i];\n      k++;\n    }\n\n\n    for(uint i = 0;i < address_byte.length; i++) {\n\n      hash[k] = address_byte[i];\n      k++;\n\n    }\n    bytes32 hash_address = keccak256(hash);\n\n    org[org_count].name = _name;\n    org[org_count].bankAccount = _bankacc;\n    org[org_count].bankName = _bankname;\n    org[org_count].id = org_count;\n    org[org_count].hash = hash_address;\n    org[org_count].address_of_organisation = _address;\n    org[org_count].ether_coins = _ether_coins;\n    return org_count;\n\n\n  }\n\nfunction createTransaction(string memory add_of_charity,string memory add_of_org,string memory amount) public {\n\n    transaction_count++;\n\n\n\n    bytes memory _address_of_charity = bytes(add_of_charity);\n    bytes memory _address_of_organisation = bytes(add_of_org);\n    bytes memory _amount = bytes(amount);\n\n    string memory length_abc = new string(_address_of_charity.length + _address_of_organisation.length + _amount.length);\n    bytes memory hash = bytes(length_abc);\n\n    uint k = 0;\n    for(uint i = 0; i < _address_of_charity.length; i++) {\n\n      hash[k++] = _address_of_charity[i];\n\n    }\n\n    for(uint i = 0; i < _address_of_organisation.length; i++) {\n\n      hash[k++] = _address_of_organisation[i];\n\n    }\n\n    for(uint i = 0; i < _amount.length; i++) {\n\n      hash[k++] = _amount[i];\n\n    }\n\n    bytes32 hash_address = keccak256(hash);\n    transaction_dict[transaction_count].address_of_charity = add_of_charity;\n    transaction_dict[transaction_count].address_of_organisation = add_of_org;\n    transaction_dict[transaction_count].amount_sent = amount;\n    transaction_dict[transaction_count].id = transaction_count;\n    transaction_dict[transaction_count].transaction_hash = hash_address;\n\n\n\n}\n/*\nfunction substring(string str, uint startIndex, uint endIndex) public returns (string) {\n    bytes memory strBytes = bytes(str);\n    bytes memory result = new bytes(endIndex-startIndex);\n    for(uint i = startIndex; i < endIndex; i++) {\n        result[i-startIndex] = strBytes[i];\n    }\n    return string(result);\n}\n*/\nfunction blockchain_function() public {\n\n\n\n    blockchain_count++;\n    uint len = 0;\n    for(uint i = 1;i<=charity_count;i++){\n        bytes memory name_charity = bytes(charitys[i].name);\n        bytes memory description = bytes(charitys[i].description);\n        bytes memory bankacc = bytes(charitys[i].bankAccount);\n        bytes memory bankname = bytes(charitys[i].bankName);\n        bytes memory add_of_charity_byte = bytes(charitys[i].address_of_charity);\n        bytes memory amount_byte = bytes(charitys[i].ether_coins);\n        len += name_charity.length + description.length + bankacc.length + bankname.length + add_of_charity_byte.length + amount_byte.length;\n    }\n    for(uint i =1;i<=org_count;i++){\n        bytes memory name_org = bytes(org[i].name);\n        bytes memory bankacc_org = bytes(org[i].bankAccount);\n        bytes memory bankname_org = bytes(org[i].bankName);\n        bytes memory address_of_organisation_byte = bytes(org[i].address_of_organisation);\n        bytes memory ether_coins_byte = bytes(org[i].ether_coins);\n        len += name_org.length + bankacc_org.length + bankname_org.length + address_of_organisation_byte.length + ether_coins_byte.length;\n    }\n    string memory lengthabcd = new string(len);\n\n    uint nonceValue = 0;\n    bytes memory dataString = bytes(lengthabcd) ;\n    bytes32 hash_addressNew;\n\n    uint j = 0;\n\n    for(uint i = 1;i <= charity_count; i++){\n      bytes memory name_charity = bytes(charitys[i].name);\n      for(uint m=0;m<name_charity.length;m++){\n        dataString[j++] = name_charity[m];\n      }\n\n      bytes memory description = bytes(charitys[i].description);\n      for(uint m=0;m<description.length;m++){\n        dataString[j++] = description[m];\n      }\n\n      bytes memory bankacc = bytes(charitys[i].bankAccount);\n      for(uint m=0;m<bankacc.length;m++){\n        dataString[j++] = bankacc[m];\n      }\n\n      bytes memory bankname = bytes(charitys[i].bankName);\n      for(uint m=0;m<bankname.length;m++){\n        dataString[j++] = bankname[m];\n      }\n\n      bytes memory add_of_charity_byte = bytes(charitys[i].address_of_charity);\n      for(uint m=0;m<add_of_charity_byte.length;m++){\n        dataString[j++] = add_of_charity_byte[m];\n      }\n\n\n      bytes memory amount_byte = bytes(charitys[i].ether_coins);\n      for(uint m=0;m<amount_byte.length;m++){\n        dataString[j++] = amount_byte[m];\n      }\n      }\n\n    for(uint i = 1;i <= org_count; i++){\n\n\n      bytes memory name_org = bytes(org[i].name);\n      for(uint m=0;m<name_org.length;m++){\n        dataString[j++] = name_org[m];\n      }\n\n      bytes memory bankacc_org = bytes(org[i].bankAccount);\n      for(uint m=0;m<bankacc_org.length;m++){\n        dataString[j++] = bankacc_org[m];\n      }\n\n      bytes memory bankname_org = bytes(org[i].bankName);\n      for(uint m=0;m<bankname_org.length;m++){\n        dataString[j++] = bankname_org[m];\n      }\n\n      bytes memory address_of_organisation_byte = bytes(org[i].address_of_organisation);\n      for(uint m=0;m<address_of_organisation_byte.length;m++){\n        dataString[j++] = address_of_organisation_byte[m];\n      }\n\n      bytes memory ether_coins_byte = bytes(org[i].ether_coins);\n      for(uint m=0;m<ether_coins_byte.length;m++){\n        dataString[j++] = ether_coins_byte[m];\n      }\n\n    }\nuint another_len = 0;\nbytes memory temp;\nbytes memory temp2;\n    for(uint i = 1;i<=transaction_count;i++){\n      if(i==transaction_count){\n          temp = abi.encode(transaction_dict[i].transaction_hash);\n          another_len += temp.length;\n      }\n      else {\n          uint z = i+1;\n          temp2 = abi.encode(transaction_dict[i].transaction_hash,transaction_dict[z].transaction_hash);\n          another_len += temp2.length;\n      }\n    }\n\n    string memory something = new string(another_len);\n\n    bytes memory hash_total = bytes(something);\n    uint l = 0;\n    for(uint i = 1; i<=transaction_count;i++) {\n\n       if(i==transaction_count){\n          temp = abi.encode(transaction_dict[i].transaction_hash);\n          for(uint m=0;m<temp.length;m++){\n            hash_total[l++] = temp[m];\n          }\n       }\n       else {\n       uint g = i+1;\n        temp2 = abi.encode(transaction_dict[i].transaction_hash,transaction_dict[g].transaction_hash);\n        for(uint m=0;m<temp2.length;m++){\n          hash_total[l++] = temp2[m];\n        }\n        i++;\n       }\n\n    }\n\n\n    bytes32 transaction_hash_address = keccak256(hash_total);\n\n//for hash calculation....\n\n  string memory lengthabc = new string(dataString.length);\n  bytes memory hashNew = bytes(lengthabc);\n  uint k =0;\n  for(uint i = 0;i<dataString.length;i++){\n    hashNew[k++] = dataString[i];\n  }\n  hash_addressNew = keccak256(hashNew);\n\n\n    Blockchain[blockchain_count].blockNumber = blockchain_count;\n    Blockchain[blockchain_count].data = dataString;\n    Blockchain[blockchain_count].hash = hash_addressNew;\n    Blockchain[blockchain_count].previous_hash = previousHash;\n    Blockchain[blockchain_count].nonce = nonceValue;\n    Blockchain[blockchain_count].transaction_hash_add = transaction_hash_address;\n    previousHash = hash_addressNew;\n    }\n\n}\n",
  "sourcePath": "/Users/vastav/Downloads/Blochain_Transparent_Charity-main/contracts/charity.sol",
  "compiler": {
    "name": "solc",
    "version": "0.5.16+commit.9c3226ce.Emscripten.clang"
  },
  "schemaVersion": "3.4.16",
  "updatedAt": "2025-03-20T15:30:06.837Z",
  "networkType": "ethereum",
  "devdoc": {
    "methods": {}
  },
  "userdoc": {
    "methods": {}
  }
}